:100000001EC100000C947C0A0C94A70A0C94D20A1E
:100010000C94FD0A0C94280B0C94530B0C947E0B3F
:100020000C94A90B3DC100003BC1000039C1000088
:1000300037C1000035C1000033C1000031C10000EC
:100040002FC100002DC100002BC1000029C10000FC
:1000500027C1000025C1000023C100000C94D40B6F
:100060001FC100000C942B0F0C94610F19C10000EC
:1000700017C1000015C1000013C1000011C100002C
:100080000FC100000DC100000BC1000009C100003C
:1000900007C1000005C1000003C100000C94DC088A
:1000A000FFC00000FDC00000FBC00000F9C0000060
:1000B000F7C00000F5C00000F3C00000F1C0000070
:1000C000EFC00000EDC00000EBC00000E9C0000080
:1000D000E7C00000E5C00000E3C00000E1C0000090
:1000E000DFC00000560A200A280A340A410A620AC0
:1000F0006F0AEB0CEE0CDD0CE10CE70C250DF20C9D
:10010000F60CFC0C000D040D0A0D0E0D120D250D44
:10011000180D1C0D200D00000A0B02090C0D0E0815
:1001200007030401000000000000000000000000C0
:1001300000000000000000000000000000000000BF
:10014000000012111000000000000000000000007C
:10015000000000000000000000000000010210206C
:1001600020080810204010204080020102010804ED
:100170000201010204081020408080402010080481
:1001800002018004020180402010080402010804DA
:10019000020101020408102040800102040810201E
:1001A0004080050505050705080808080202020247
:1001B0000A0A080804040404010101010101010103
:1001C0000303030303030303040707070C0C0C0CCE
:1001D0000C0C0C0C020202020606060606060606B7
:1001E0000B0B0B0B0B0B0B0B00002000230026004E
:1001F00029002C002F00320000010000030106013D
:10020000090100002200250028002B002E003100EB
:10021000340002010000050108010B01000021006B
:10022000240027002A002D003000330001010000C7
:10023000040107010A01DE029D06F507930F112450
:100240001FBECFEFD1E2DEBFCDBF00E00CBF13E099
:10025000A0E0B2E0ECEBF8E200E00BBF02C00790D8
:100260000D92A034B107D9F725E0A0E4B3E001C0B6
:100270001D92A036B207E1F712E0CEE3D2E000E033
:1002800006C022970109FE010BBF0E943914C63334
:10029000D10780E00807A9F70E94E5110C945C14CF
:1002A000AFCE0C944E146091D8037091D9036F5F58
:1002B0007F4F7093D9036093D80380E090E0F1DF23
:1002C00080E090E00E944614809345038A3031F527
:1002D0008091D6039091D70301969093D703809392
:1002E000D6036AE272E083EC94E00E9414106091FD
:1002F000D6037091D7034AE050E083EC94E00E946B
:10030000E4106091D60381E090E0CBDF1092D90336
:100310001092D80360E080E090E0C3CF089526E01B
:1003200040E855E260E070E083EC94E00E94CB0E80
:1003300020E042E060E18AED93E045D48AED93E06D
:1003400025D463E372E08AED93E00E94141060EE1E
:100350007EE280E090E00E94410C64E472E083EC75
:1003600094E00E941F1069E472E083EC94E00E9424
:100370001F1063E572E083EC94E00E941F1061E0BF
:100380008DE00E94260D60E08EE10E94260D61E066
:1003900082E00E94260D61E088E00E94260D60E068
:1003A0008AE00E94260D60E080E20E94260D60E057
:1003B00081E20E94260D43E050E063E571E081E0B8
:1003C0000E940B0A60E08DE00E945F0D60E082E019
:1003D0000E945F0D61E088E00C945F0DCF93DF9386
:1003E000EC0140E060E08AED93E0D5D38091D40346
:1003F0009091D5034E9761F465E672E08AED93E043
:100400000E94141068EE73E080E090E00E94410CBE
:1004100065E772E08AED93E00E94141040E068E026
:100420008AED93E0B8D34AE050E0BE018AED93E054
:100430000E94DD10CB30D105A4F485E08C9FB00183
:100440008D9F700D1124882777FD8095982F0E942D
:10045000F61260934003709341038093420390939C
:100460004303CE010B970597A8F4BE01882777FDBB
:100470008095982F0E94F61226E636E646EB50E469
:100480000E94AA1360934003709341038093420338
:1004900090934303CE0140970597A8F4BE018827A7
:1004A00077FD8095982F0E94F61223E333E343EC07
:1004B00050E40E94AA136093400370934103809319
:1004C000420390934303CE0145970A9760F4BE011F
:1004D000882777FD8095982F0E94F61226E636E64B
:1004E00046ED50E40EC0CF31D105ACF0BE018827F7
:1004F00077FD8095982F0E94F61220E030E040EFC3
:1005000050E40E94AA1360934003709341038093C8
:1005100042039093430341E060E08AED93E03BD3D4
:100520006EE772E08AED93E00E94141041E06AE009
:100530008AED93E030D340914003509141036091A4
:1005400042037091430322E030E08AED93E0DF91B3
:10055000CF910C94E311CF93DF93EC0169E472E047
:1005600083EC94E00E941F1064EF71E080E090E063
:100570000E94410C69E872E083EC94E00E941F1035
:1005800064EF71E080E090E00E94410CBE0183ECDA
:1005900094E00E941F1064EF71E080E090E00E9400
:1005A000410C6AE183EC94E00E942F1064EF71E04B
:1005B00080E090E0DF91CF910C94410CCF92EF92CC
:1005C0000F938BE1C82E9AE1E92E09E128E147E17A
:1005D00066E18AED93E07DD30F91EF90CF9008957F
:1005E000CF93DF9382EF93E0ABD380E090E00E9463
:1005F000461490E09093D9038093D80381E090E073
:100600000E94461490E09093D7038093D6038EE126
:100610000E94940D90931502809314028AE00E9428
:10062000940D9093C1038093C00382EF93E084D331
:100630009093D5038093D40360E08DE00E945F0D1A
:100640001092D3031092D2031092D1031092D003D0
:100650008AED93E09BD28091D6039091D703BEDEC2
:1006600080E20E94940D892BE9F08AED93E08ED20E
:100670006FE972E08AED93E00E94141060E080E080
:1006800090E00FDE60E081E090E00BDE60E082E071
:1006900090E007DE60E088E090E003DE60E089E063
:1006A00090E0FFDD81E20E94940D892B41F081E210
:1006B0000E94940D892BD9F78FEA92E04CDF80914C
:1006C000C0039091C1032091BE033091BF038217F4
:1006D000930771F0019761F48DEB92E03CDF8AEDB6
:1006E00093E054D26AEC72E08AED93E00E94141019
:1006F0008091C0039091C1039093BF038093BE0388
:1007000083EC94E00E94BC0D181619060CF03BC156
:100710001092D3031092D2031092D1031092D003FF
:1007200081E090E090931702809316029093190253
:100730008093180283EC94E00E94BC0D18161906F1
:10074000ACF4C091D203D091D30383EC94E00E9427
:10075000D50DC259DC4F88838091D2039091D30389
:1007600001969093D3038093D203E4CFEEE6F3E0B7
:1007700001900020E9F73197EE56F340F093CF0354
:10078000E093CE036EE673E083EC94E00E941F10CA
:1007900082E090E09C01225031098630910554F4AA
:1007A000FC01E85AFC4FDC01A259BC4F2C9120837C
:1007B0000196F0CF9093D3038093D2033093D1036B
:1007C0002093D0036AE573E083EC94E00E941F104D
:1007D0006FE072E08AE593E00E943D149093190265
:1007E00080931802892B09F0C9C083E390E09C0133
:1007F000235331098533910554F4FC01ED5EFC4F20
:10080000DC01A259BC4F2C9120830196F0CF90932C
:10081000D3038093D2033093D1032093D00366E4B3
:1008200073E083EC94E00E941F10C1E0D0E0D0930D
:100830001902C09318026CE072E086E493E00E9413
:100840003D149093170280931602892B09F03EC045
:1008500081E090E00E9446148093440369E472E0D2
:1008600083EC94E00E941F1064EF71E080E090E060
:100870000E94410C69E872E083EC94E00E941F1032
:1008800064EF71E080E090E0FCD74AE050E06091D6
:10089000440383EC94E00E94061164EF71E080E071
:1008A00090E0EFD76AE183EC94E00E942F1064EFB0
:1008B00071E080E090E0E5D7D0931702C093160274
:1008C0001092440360E081E090E0EBDC69E072E0CC
:1008D00086E493E00E943D14892B71F481E090E05E
:1008E0009093CD038093CC031092CB031092CA0354
:1008F0009093C7038093C60366E072E086E493E0BA
:100900000E943D14892B71F481E090E09093CB0319
:100910008093CA031092CD031092CC039093C90325
:100920008093C80363E072E086E493E00E943D1484
:10093000892B71F481E090E09093C3038093C2030C
:100940001092C5031092C4039093C9038093C80307
:1009500060E072E086E493E00E943D14892B71F41C
:100960001092C3031092C20381E090E09093C503FC
:100970008093C4039093C7038093C60368EE73E02B
:1009800080E090E07ED78091CC039091CD030197D9
:10099000B9F460E088E00E945F0D809114029091AC
:1009A0001502019769F48091C6039091C7030197DE
:1009B00019F48BED92E0CFDD1092C7031092C603BD
:1009C0008091CA039091CB030197B9F461E088E06C
:1009D0000E945F0D8091140290911502892B69F499
:1009E0008091C8039091C903019719F488EE92E0B1
:1009F000B2DD1092C9031092C8038091C403909194
:100A0000C5030197B9F460E088E00E945F0D809112
:100A1000140290911502019769F48091C603909198
:100A2000C703019719F484EF92E095DD1092C70394
:100A30001092C6038091C2039091C3030197B9F449
:100A400061E088E00E945F0D809114029091150290
:100A5000892B69F48091C8039091C903019719F417
:100A60008EEF92E078DD1092C9031092C80364EF14
:100A700071E080E090E0DF91CF9103C7CF93DF93E7
:100A8000EC0160E08E810E945F0D81E090E01ED756
:100A900061E08E810E945F0D81E090E017D760E0F9
:100AA0008E810E945F0D84E690E0DF91CF910EC7AA
:100AB000EF92FF920F931F93CF93DF938C01C0E0CF
:100AC000D0E0E62EF12CB7010C2E02C0759567958B
:100AD0000A94E2F76170F801EC0FFD1F8781EFD7F0
:100AE0002196C430D10579F7C801DF91CF911F91CC
:100AF0000F91FF90EF90C2CFEF92FF920F931F9351
:100B0000CF93DF938C01C0E0D0E0E62EF12CB7014B
:100B10000C2E02C0759567950A94E2F76170F80192
:100B2000EC0FFD1F8781CBD72196C830D10579F70F
:100B3000C801DF91CF911F910F91FF90EF909ECF51
:100B40001F93CF93DF93EC01162F642F8C81B7D7BF
:100B50008D818F3F11F060E0B2D78F85612F84FFC8
:100B600005C0CE01DF91CF911F91C6CF70E084E028
:100B7000759567958A95E1F7CE019ADF612FCE01D1
:100B8000DF91CF911F9194CF40E0DACF61E0FCDF9D
:100B900080ED97E09BC6443008F043E0FC012389D8
:100BA000421710F04FEF420FFC01E40FF11D2489B2
:100BB000260F2068622FE8CFFC016089262F246071
:100BC000208B6C60E1CF0F931F93CF93DF93EC01E9
:100BD000423018F08F8588608F874B8B1C8A80E4A9
:100BE0008D8B6E8B70E0605C7F4F6F8B222329F0C2
:100BF000413019F48F8584608F8761E08C8126D71E
:100C00008D818F3F11F061E021D761E08E811ED789
:100C100000E010E08F8584FF03C088E090E002C010
:100C200084E090E0081719074CF4FE01E00FF11F73
:100C300061E087810BD70F5F1F4FECCF80E593EC0E
:100C400045D660E08C813BD760E08E8138D78D81BE
:100C50008F3F11F060E033D76F8564FD16C063E00D
:100C6000CE0126DF84E991E131D663E0CE0120DFB9
:100C700084E991E12BD663E0CE011ADF86E990E0AA
:100C800025D662E0CE0114DF11C06062CE017CDFA8
:100C900084E991E11BD66F856062CE0175DF86E93C
:100CA00090E014D66F856062CE016EDF6F85606262
:100CB000CE016ADF84E0888BCE017EDFCE0166DF65
:100CC00082E0898B66E0CE01DF91CF911F910F9179
:100CD0005BCFCF92EF920F93FC01138212828BE0D5
:100CE00093E09183808364838FEF8583468327839A
:100CF0000087E186C28613861486158616861786B7
:100D000020E041E060E1CF010F91EF90CF905BCF09
:100D100041E016DF81E090E00895FC012481922FEC
:100D20009695969596959E71892F880F880F890FB5
:100D30002F70820F90E00895F0CF8AEF93E0CEC03D
:100D4000CF93DF93EC0168E670E08AEF93E0D9D0AF
:100D500060E08AEF93E084D08AEF93E044D148E0EA
:100D600050E068E670E08AEF93E03BD18AEF93E0D1
:100D700028D088838AEF93E024D089838AEF93E098
:100D800020D08A838AEF93E01CD08B838AEF93E094
:100D900018D08C838AEF93E014D08D838AEF93E090
:100DA00010D08E838AEF93E00CD08F83DF91CF91A8
:100DB000089580912A0490E020912B04821B9109D0
:100DC000089520912B0480912A04281750F4E22FD3
:100DD000F0E0E45DFB4F808190E02F5F20932B04D7
:100DE00008958FEF9FEF0895E0912B0480912A04DE
:100DF000E81730F4F0E0E45DFB4F808190E0089567
:100E00008FEF9FEF08950895CF92DF92EF92FF92B8
:100E10000F931F93CF93DF937C01CB018A01209125
:100E20000604222389F0EB016B01C40ED51ECC15FC
:100E3000DD0561F06991D701ED91FC910190F081A0
:100E4000E02DC7011995F3CF642F8DD1C801DF9133
:100E5000CF911F910F91FF90EF90DF90CF90089569
:100E6000CF93DF931F92CDB7DEB76983209106043D
:100E70002223D1F020910704203240F021E030E01D
:100E8000FC013383228380E090E014C08091080449
:100E9000E82FF0E0E75FFB4F998190838F5F8093AD
:100EA00008048093070404C061E0CE0101965BD181
:100EB00081E090E00F90DF91CF910895FC011382C3
:100EC000128248EE53E060E070E04483558366830D
:100ED000778383E193E091838083089510922B04BC
:100EE00010922A04109208041092070481C081E035
:100EF000809306046093290410920804109207045A
:100F00000895F5CF0F93062F21E04091070469E083
:100F100074E080912904D0D0109208041092070444
:100F2000109206040F9108958F929F92AF92BF92F4
:100F3000CF92DF92EF92FF920F931F93CF93DF93A5
:100F4000EC01F62ED42E48015901EE2009F1CFDF35
:100F50001E2D143008F013E01150B8F0E881F9812B
:100F600028E0129FB0011124A501940104C05695F8
:100F70004795379527956A95D2F7CA01B90101902F
:100F8000F081E02DCE011995E7CF60E0CE01BADF08
:100F90004D2D413208F040E22C2D6CE274E08F2D93
:100FA00043D010922B0480932A04DF91CF911F919C
:100FB0000F91FF90EF90DF90CF90BF90AF909F90F8
:100FC0008F900895CF92EF920F931F93C22EE12C32
:100FD00000E010E09801A8DF1F910F91EF90CF90F3
:100FE000089521E0EFCF61E08DCF8AEF93E066CFE7
:100FF0001092B90481E08093B7041092B60461E0C6
:1010000084E15DD561E085E15AD5E9EBF0E08081CE
:101010008E7F808380818D7F808388E48093B80079
:1010200085E48093BC000895413208F043C090915C
:10103000B9049111FCCF91E09093B9042093B704C7
:101040002FEF20934C0410929104240F20939004CE
:101050009093B8049091B804880F892B8093B804BA
:101060008091B604813061F41092B6048091B80486
:101070008093BB008091BC0083FDF8CF85EC01C05C
:1010800085EE8093BC008091B9048130E1F38091BA
:101090009104841710F44091910422E934E0FB019B
:1010A000D9018A2F821B841718F48D918193F9CF6F
:1010B000842F089580E008950F93413208F04AC0CC
:1010C0009091B9049111FCCF92E09093B9040093F0
:1010D000B7049FEF90934C041092910440939004B6
:1010E000FB0162E974E0DB019A2F961B941718F458
:1010F00091919D93F9CF1092B8049091B804880F04
:10110000892B8093B8048091B604813061F41092E9
:10111000B6048091B8048093BB008091BC0083FD2D
:10112000F8CF85EC01C085EE8093BC00222321F02E
:101130008091B9048230E1F380914C048F3F61F0DB
:1011400080914C04803251F080914C04803341F402
:1011500083E007C081E005C080E003C082E001C0F9
:1011600084E00F910895613298F42091B9042430FD
:1011700089F460936E04FC0180E794E0DC012A2F7F
:10118000281B261718F421912D93F9CF80E008959C
:1011900081E0089582E0089585ED8093BC00809100
:1011A000BC0084FDFCCF1092B904089585EC8093B7
:1011B000BC001092B90408951F920F920FB60F92BF
:1011C00011240BB60F922F933F934F935F936F931E
:1011D0007F938F939F93AF93BF93EF93FF938091F0
:1011E000B900887F803609F49DC070F5883209F413
:1011F0005CC090F4803109F455C038F4882309F4B8
:10120000F3C0883009F44EC0F2C0883109F44DC0F3
:10121000803209F45EC0EBC0803409F469C050F438
:10122000803309F456C0883309F0E1C080934C0440
:10123000BDDFDDC0803509F44FC0883509F45DC0DD
:10124000883409F0D4C0D2C0883909F4C3C0A8F4E6
:10125000883709F467C038F4883609F463C08037EA
:1012600009F460C0C4C0883809F4B4C0803909F4F6
:101270005FC0803809F0BBC05BC0803B09F482C00E
:1012800038F4803A09F466C0883A09F47BC0AFC0EC
:10129000803C09F4A3C0883C09F4A0C0883B09F451
:1012A00086C0A5C08091B80410C09091910480912F
:1012B0009004981770F5E091910481E08E0F80936F
:1012C0009104F0E0EE56FB4F80818093BB0085ECEB
:1012D00082C080934C048AC0E091910481E08E0F1B
:1012E000809391048091BB00F0E0EE56FB4F808329
:1012F00090919104809190046AC0E091910481E002
:101300008E0F809391048091BB00F0E0EE56FB4F6E
:1013100080838091B704811169C081E08093B60415
:1013200084EA5DC083E08093B90410924D04CFCF6E
:1013300080914D04803208F04DC0E0914D0481E071
:101340008E0F80934D048091BB00F0E0E25BFB4F79
:101350008083BDCF2BDF80914D04803230F4E0914B
:101360004D04F0E0E25BFB4F108260914D0470E0B1
:10137000E091B204F091B3048EE494E019951092D8
:101380004D0435C084E08093B90410926F0410922C
:101390006E04E091B404F091B504199580916E0447
:1013A000811105C081E080936E0410927004E09179
:1013B0006F0481E08E0F80936F04F0E0E059FB4FE3
:1013C00080818093BB0090916F0480916E04981788
:1013D00008F47DCF85E88093BC0009C085EC80933C
:1013E000BC001092B90403C010924C04D5DEFF91EA
:1013F000EF91BF91AF919F918F917F916F915F918D
:101400004F913F912F910F900BBE0F900FBE0F90F9
:101410001F9018950895883008F06DC0E82FF0E00F
:10142000EE0FFF1FE65EFD4F7183608390E0FC01CD
:101430003197E730F10590F5EE58FF4F0C943314D7
:10144000809169008C7F842B80936900E89A0895CD
:1014500080916900440F551F440F551F837F842BD3
:1014600080936900E99A08958091690074E0440FBF
:10147000551F7A95E1F78F7C842B80936900EA9A57
:1014800008958091690066E0440F551F6A95E1F761
:101490008F73842B80936900EB9A089580916A0082
:1014A0008C7F842B80936A00EC9A089580916A0067
:1014B000440F551F440F551F837F842B80936A0070
:1014C000ED9A089580916A0024E0440F551F2A95F3
:1014D000E1F78F7C842B80936A00EE9A08958091C7
:1014E0006A0096E0440F551F9A95E1F78F73842B9D
:1014F00080936A00EF9A08951F920F920FB60F9291
:1015000011240BB60F922F933F934F935F936F93DA
:101510007F938F939F93AF93BF93EF93FF93E0914C
:101520001E02F0911F021995FF91EF91BF91AF91AB
:101530009F918F917F916F915F914F913F912F91EB
:101540000F900BBE0F900FBE0F901F9018951F921B
:101550000F920FB60F9211240BB60F922F933F9359
:101560004F935F936F937F938F939F93AF93BF93AB
:10157000EF93FF93E0912002F09121021995FF91E2
:10158000EF91BF91AF919F918F917F916F915F91FB
:101590004F913F912F910F900BBE0F900FBE0F9068
:1015A0001F9018951F920F920FB60F9211240BB631
:1015B0000F922F933F934F935F936F937F938F93EC
:1015C0009F93AF93BF93EF93FF93E0912202F0912B
:1015D00023021995FF91EF91BF91AF919F918F9148
:1015E0007F916F915F914F913F912F910F900BBE23
:1015F0000F900FBE0F901F9018951F920F920FB66D
:101600000F9211240BB60F922F933F934F935F933A
:101610006F937F938F939F93AF93BF93EF93FF93BA
:10162000E0912402F09125021995FF91EF91BF916D
:10163000AF919F918F917F916F915F914F913F916A
:101640002F910F900BBE0F900FBE0F901F9018950B
:101650001F920F920FB60F9211240BB60F922F9379
:101660003F934F935F936F937F938F939F93AF932A
:10167000BF93EF93FF93E0911A02F0911B0219952B
:10168000FF91EF91BF91AF919F918F917F916F915A
:101690005F914F913F912F910F900BBE0F900FBE16
:1016A0000F901F9018951F920F920FB60F92112452
:1016B0000BB60F922F933F934F935F936F937F934C
:1016C0008F939F93AF93BF93EF93FF93E0911C028F
:1016D000F0911D021995FF91EF91BF91AF919F91EC
:1016E0008F917F916F915F914F913F912F910F90CB
:1016F0000BBE0F900FBE0F901F9018951F920F9268
:101700000FB60F9211240BB60F922F933F934F9366
:101710005F936F937F938F939F93AF93BF93EF9359
:10172000FF93E0912602F09127021995FF91EF9126
:10173000BF91AF919F918F917F916F915F914F91E9
:101740003F912F910F900BBE0F900FBE0F901F90E7
:1017500018951F920F920FB60F9211240BB60F928D
:101760002F933F934F935F936F937F938F939F93A9
:10177000AF93BF93EF93FF93E0912802F09129027A
:101780001995FF91EF91BF91AF919F918F917F91AB
:101790006F915F914F913F912F910F900BBE0F90E2
:1017A0000FBE0F901F9018951F920F920FB60F92B9
:1017B00011242F933F938F939F93AF93BF93809167
:1017C000BB049091BC04A091BD04B091BE043091C3
:1017D000BA0423E0230F2D3720F40196A11DB11D7B
:1017E00005C026E8230F0296A11DB11D2093BA045F
:1017F0008093BB049093BC04A093BD04B093BE043B
:101800008091BF049091C004A091C104B091C20422
:101810000196A11DB11D8093BF049093C004A093B5
:10182000C104B093C204BF91AF919F918F913F913A
:101830002F910F900FBE0F901F9018953FB7F894FF
:101840008091BF049091C004A091C104B091C204E2
:1018500026B5A89B05C02F3F19F00196A11DB11D0B
:101860003FBF6627782F892F9A2F620F711D811D28
:10187000911D42E0660F771F881F991F4A95D1F787
:101880000895CF92DF92EF92FF92CF93DF936B0197
:101890007C01D4DFEB01C114D104E104F10479F03F
:1018A000A0D5CCDF6C1B7D0B683E7340A0F381E0BC
:1018B000C81AD108E108F108C851DC4FECCFDF911C
:1018C000CF91FF90EF90DF90CF90089582309105F7
:1018D00038F0880F991F880F991F05970197F1F726
:1018E0000895789484B5826084BD84B5816084BD98
:1018F00085B5826085BD85B5816085BDEEE6F0E089
:10190000808181608083E1E8F0E0108280818260E4
:101910008083808181608083E0E8F0E08081816065
:101920008083E1EBF0E0808184608083E0EBF0E095
:10193000808181608083E1E9F0E080818260808342
:10194000808181608083E0E9F0E080818160808334
:10195000E1EAF0E080818260808380818160808321
:10196000E0EAF0E0808181608083E1E2F1E0808163
:1019700082608083808181608083E0E2F1E0808109
:1019800081608083EAE7F0E08081846080838081E9
:101990008260808380818160808380818068808391
:1019A0001092C100089590E0FC013197E231F105F9
:1019B00008F04BC0E758FF4F56C7809180008F77E3
:1019C00003C0809180008F7D809380000895809176
:1019D0008000877FF9CF84B58F7702C084B58F7D73
:1019E00084BD08958091B0008F7703C08091B000CE
:1019F0008F7D8093B0000895809190008F7707C00D
:101A0000809190008F7D03C080919000877F8093AC
:101A1000900008958091A0008F7707C08091A0006A
:101A20008F7D03C08091A000877F8093A0000895E0
:101A3000809120018F7707C0809120018F7D03C0A6
:101A400080912001877F809320010895CF93DF93B9
:101A500090E0FC01E45AFE4F2491FC01EE55FE4F4C
:101A60008491882349F190E0880F991FFC01E45E7E
:101A7000FD4FA591B4918E5F9D4FFC01C591D4910E
:101A80009FB7611108C0F8948C91209582238C93A4
:101A9000888182230AC0623051F4F8948C91322FED
:101AA000309583238C938881822B888304C0F8949B
:101AB0008C91822B8C939FBFDF91CF9108950F93D0
:101AC0001F93CF93DF931F92CDB7DEB7282F30E05F
:101AD000F901EA5EFE4F8491F901E45AFE4F149138
:101AE000F901EE55FE4F04910023C1F0882319F04F
:101AF000698359DF6981E02FF0E0EE0FFF1FEE5F91
:101B0000FD4FA591B4919FB7F8948C91611103C0DA
:101B10001095812301C0812B8C939FBF0F90DF9183
:101B2000CF911F910F910895CF93DF93282F30E02D
:101B3000F901EA5EFE4F8491F901E45AFE4FD49117
:101B4000F901EE55FE4FC491CC2389F081112BDFB2
:101B5000EC2FF0E0EE0FFF1FE851FE4FA591B4917E
:101B60002C912D2381E090E021F480E002C080E000
:101B700090E0DF91CF910895FC01818D228D90E05E
:101B8000805C9F4F821B91098F7399270895FC01F8
:101B9000918D828D981731F0828DE80FF11D858D22
:101BA00090E008958FEF9FEF0895FC01918D828D55
:101BB000981761F0828DDF01A80FB11D5D968C91A1
:101BC000928D9F5F9F73928F90E008958FEF9FEFAC
:101BD00008958AE89FE0892B39F080E090E0892B16
:101BE00019F098D1811125C080E090E0892B41F057
:101BF00080E090E0892B21F00E94000081111CC040
:101C000080E090E0892B41F080E090E0892B21F08A
:101C10000E940000811113C080E090E0892BA1F0A8
:101C200080E090E0892B81F00E94000081110AC0C1
:101C300008950E940000D8CF0E940000E1CF0E94CA
:101C40000000EACF0C9400000895FC01848DDF01B0
:101C5000A80FB11DA35ABF4F2C91848D90E001961F
:101C60008F739927848FA689B7892C93A089B1890E
:101C70008C9180648C93938D848D981306C0028818
:101C8000F389E02D80818F7D80830895CF93DF934A
:101C9000EC01888D8823C1F0EA89FB89808185FD6C
:101CA00005C0A889B9898C9186FD0EC00FB607FCC6
:101CB000F5CF808185FFF2CFA889B9898C9185FF06
:101CC000EDCFCE01C2DFE8CFDF91CF910895CF9263
:101CD000DF92FF920F931F93CF93DF931F92CDB7A5
:101CE000DEB76C0181E0D60158968C9358975B96CD
:101CF0009C915B975C968C915C97981307C050966B
:101D0000ED91FC915197808185FD2DC0F601038DE9
:101D100010E00F5F1F4F0F731127F02EF601848D17
:101D2000F81210C00FB607FCF9CFD6015096ED910E
:101D3000FC915197808185FFF1CFC601698385DFD2
:101D40006981ECCF838DE80FF11DE35AFF4F60836B
:101D5000D6015B960C935B975296ED91FC9153974D
:101D6000808180620CC0D6015696ED91FC91579708
:101D700060835096ED91FC915197808180648083BF
:101D800081E090E00F90DF91CF911F910F91FF9034
:101D9000DF90CF900895BF92CF92DF92EF92FF92A3
:101DA000CF93DF93EC016A017B01B22EE889F989B8
:101DB00082E08083411581EE58076105710599F035
:101DC00060E079E08DE390E0A70196012AD52150EB
:101DD00031094109510956954795379527952115A0
:101DE00080E1380790F0E889F989108260E874E8AA
:101DF0008EE190E0A701960114D5215031094109E7
:101E000051095695479537952795EC85FD85308383
:101E1000EE85FF852083188EEC89FD89B082EA89E2
:101E2000FB89808180618083EA89FB898081886069
:101E30008083EA89FB89808180688083EA89FB89C5
:101E400080818F7D8083DF91CF91FF90EF90DF9035
:101E5000CF90BF9008951F920F920FB60F9211244A
:101E60000BB60F922F938F939F93EF93FF93E09175
:101E7000D304F091D4048081E091D904F091DA0484
:101E800082FD12C090818091DC048F5F8F7320915E
:101E9000DD04821751F0E091DC04F0E0ED53FB4FDC
:101EA000958F8093DC0401C08081FF91EF919F9119
:101EB0008F912F910F900BBE0F900FBE0F901F9020
:101EC00018951F920F920FB60F9211240BB60F9216
:101ED0002F933F934F935F936F937F938F939F9332
:101EE000AF93BF93EF93FF9383EC94E0AEDEFF914B
:101EF000EF91BF91AF919F918F917F916F915F9182
:101F00004F913F912F910F900BBE0F900FBE0F90EE
:101F10001F90189583EC94E02FDE21E0892B09F4C3
:101F200020E0822F08951092C6041092C50488EE16
:101F300093E0A0E0B0E08093C7049093C804A0931E
:101F4000C904B093CA0483E293E09093C4048093DD
:101F5000C30485EC90E09093D0048093CF0484EC8C
:101F600090E09093D2048093D10480EC90E0909321
:101F7000D4048093D30481EC90E09093D6048093B2
:101F8000D50482EC90E09093D8048093D70486EC3B
:101F900090E09093DA048093D9041092DC041092BC
:101FA000DD041092DE041092DF040895CF92DF92D8
:101FB000EF92FF920F931F93CF93DF937C016A01FF
:101FC000EB0100E010E00C151D0571F06991D701DF
:101FD000ED91FC910190F081E02DC7011995892BBD
:101FE00019F00F5F1F4FEFCFC801DF91CF911F9105
:101FF0000F91FF90EF90DF90CF90089561157105DC
:1020000081F0DB010D900020E9F7AD01415051094D
:10201000461B570BDC01ED91FC910280F381E02D12
:10202000199480E090E00895E9CFDC01ED91FC91F6
:102030000190F081E02D19946FE273E0DFCF0F93F0
:102040001F93CF93DF93EC01D9DF8C01CE01F4DF36
:10205000800F911FDF91CF911F910F9108950F93E2
:102060001F93CF93DF93EC01E0DF8C01CE01E4DF1F
:10207000800F911FDF91CF911F910F9108958F9243
:102080009F92AF92BF92CF92DF92EF92FF920F9307
:102090001F93CF93DF93CDB7DEB7A1970FB6F89418
:1020A000DEBF0FBECDBF7C01C42EE52FCB01D22EEB
:1020B00019A221E02D1510F02AE0D22E8E010F5D1D
:1020C0001F4F8D2C912CA12CB12C6C2D7E2FA50196
:1020D0009401A7D38C2DD29E80191124015011098F
:1020E0008A3014F4805D01C0895CF8018083211579
:1020F00031054105510521F0C22EE32FCA01E5CF7C
:10210000B801C7017BDFA1960FB6F894DEBF0FBE02
:10211000CDBFDF91CF911F910F91FF90EF90DF9096
:10212000CF90BF90AF909F908F900895CF92DF9205
:10213000EF92FF920F931F93CF93DF93EC016A010D
:102140007B012115310579F4E881F9810190F08155
:10215000E02D642FDF91CF911F910F91FF90EF90B1
:10216000DF90CF9019942A303105D9F477FF18C049
:102170006DE25BDF8C0144275527BA014C195D09DC
:102180006E097F092AE0CE017ADF800F911FDF916F
:10219000CF911F910F91FF90EF90DF90CF90089516
:1021A0002AE0B701A601CE01DF91CF911F910F91D7
:1021B000FF90EF90DF90CF9062CF9A01AB0166273E
:1021C00057FD6095762FB2CF0F931F93CF93DF9378
:1021D000EC019A01AB01662757FD6095762FA6DFCB
:1021E0008C01CE0129DF800F911FDF91CF911F91CC
:1021F0000F9108952115310541F4DC01ED91FC9119
:102200000190F081E02D642F199439CF9A01462F67
:1022100050E060E070E0EECF4F925F926F927F925D
:102220008F929F92AF92BF92CF92DF92EF92FF92E6
:102230000F931F93CF93DF93EC016A017B01B22EC2
:102240009A01AB01C701B601E8D2882319F062E315
:1022500073E024C026013701E89477F82FEF3FEFB1
:102260004FE75FE7C301B201D8D281110CC02FEF55
:102270003FEF4FE75FE7C301B20119D118161CF415
:1022800066E373E00BC02FEF3FEF4FE75FE4C7015A
:10229000B6015CD21816A4F46AE373E0CE01DF91B4
:1022A000CF911F910F91FF90EF90DF90CF90BF9053
:1022B000AF909F908F907F906F905F904F909ECE49
:1022C0002FEF3FEF4FE75FECC701B601F0D087FD7E
:1022D000E3CF20E030E0A901C701B601E8D087FFD5
:1022E00009C06DE2CE01A1DE8C01F7FAF094F7F897
:1022F000F09402C000E010E0A12C60E070E080E00B
:102300009FE3AB1439F020E030E040E251E4D3D059
:10231000A394F7CF9B01AC01C701B60164D06B0158
:102320007C0136D12B013C015FD19B01AC01C7017F
:10233000B60158D06B017C012AE0B301A201CE01A5
:102340009EDE080F191FBB2031F06EE373E0CE0153
:1023500055DE080F191F7B2C772019F120E030E0A3
:1023600040E251E4C701B601F5D16B017C010BD10C
:102370004B01AA2497FCA094BA2C2AE030E0B501C6
:10238000A401CE01D3DE080F191FC501B4012ED15F
:102390009B01AC01C701B60125D06B017C017A9489
:1023A000DBCFC801DF91CF911F910F91FF90EF908C
:1023B000DF90CF90BF90AF909F908F907F906F9065
:1023C0005F904F90089528CF08958BDAFDDF0E942B
:1023D0008F01C9EEDDE00E94F0022097E1F3F9DB06
:1023E000FACF08955058BB27AA270ED075C166D1E1
:1023F00030F06BD120F031F49F3F11F41EF45BC13B
:102400000EF4E095E7FB51C1E92F77D180F3BA17BD
:10241000620773078407950718F071F49EF58FC162
:102420000EF4E0950B2EBA2FA02D0B01B9019001EF
:102430000C01CA01A0011124FF27591B99F0593F33
:1024400050F4503E68F11A16F040A22F232F342F7B
:102450004427585FF3CF469537952795A795F040C9
:102460005395C9F77EF41F16BA0B620B730B840BDE
:10247000BAF09150A1F0FF0FBB1F661F771F881F96
:10248000C2F70EC0BA0F621F731F841F48F48795EE
:1024900077956795B795F7959E3F08F0B3CF9395DD
:1024A000880F08F09927EE0F979587950895D9D052
:1024B00008F481E008950CD00FC107D140F0FED0A0
:1024C00030F021F45F3F19F0F0C0511139C1F3C071
:1024D00014D198F39923C9F35523B1F3951B550BE8
:1024E000BB27AA2762177307840738F09F5F5F4FE7
:1024F000220F331F441FAA1FA9F333D00E2E3AF028
:10250000E0E830D091505040E695001CCAF729D041
:10251000FE2F27D0660F771F881FBB1F2617370790
:102520004807AB07B0E809F0BB0B802DBF01FF27C0
:1025300093585F4F2AF09E3F510568F0B6C000C126
:102540005F3FECF3983EDCF3869577956795B795FA
:10255000F7959F5FC9F7880F911D9695879597F915
:102560000895E1E0660F771F881FBB1F621773078E
:102570008407BA0720F0621B730B840BBA0BEE1FA3
:1025800088F7E095089504D06894B111D9C00895F2
:10259000BCD088F09F5790F0B92F9927B751A0F081
:1025A000D1F0660F771F881F991F1AF0BA95C9F7E7
:1025B00012C0B13081F0C3D0B1E00895C0C0672F20
:1025C000782F8827B85F39F0B93FCCF38695779597
:1025D0006795B395D9F73EF4909580957095619580
:1025E0007F4F8F4F9F4F0895E89409C097FB3EF4AB
:1025F00090958095709561957F4F8F4F9F4F992350
:10260000A9F0F92F96E9BB279395F69587957795CD
:102610006795B795F111F8CFFAF4BB0F11F460FF8D
:102620001BC06F5F7F4F8F4F9F4F16C0882311F0E5
:1026300096E911C0772321F09EE8872F762F05C0F9
:10264000662371F096E8862F70E060E02AF09A9594
:10265000660F771F881FDAF7880F9695879597F989
:102660000895990F0008550FAA0BE0E8FEEF161623
:102670001706E807F907C0F012161306E407F50776
:1026800098F0621B730B840B950B39F40A2661F0EA
:10269000232B242B252B21F408950A2609F4A1408D
:1026A000A6958FEF811D811D089597F99F6780E89A
:1026B00070E060E008959FEF80EC089500240A9494
:1026C0001616170618060906089500240A9412160D
:1026D0001306140605060895092E0394000C11F440
:1026E000882352F0BB0F40F4BF2B11F460FF04C0ED
:1026F0006F5F7F4F8F4F9F4F089557FD9058440F46
:10270000551F59F05F3F71F04795880F97FB991F50
:1027100061F09F3F79F0879508951216130614060D
:10272000551FF2CF4695F1DF08C01616170618069A
:10273000991FF1CF86957105610508940895E89475
:10274000BB2766277727CB0197F908958ADF08F41E
:102750008FEF08950BD0C0CFB1DF28F0B6DF18F0AF
:10276000952309F0A2CFA7CF1124EACFC6DFA0F3AB
:10277000959FD1F3950F50E0551F629FF001729F16
:10278000BB27F00DB11D639FAA27F00DB11DAA1F35
:10279000649F6627B00DA11D661F829F2227B00D82
:1027A000A11D621F739FB00DA11D621F839FA00D0D
:1027B000611D221F749F3327A00D611D231F849F5D
:1027C000600D211D822F762F6A2F11249F575040B4
:1027D0008AF0E1F088234AF0EE0FFF1FBB1F661F4F
:1027E000771F881F91505040A9F79E3F510570F008
:1027F0005CCFA6CF5F3FECF3983EDCF386957795F0
:102800006795B795F795E7959F5FC1F7FE2B880F02
:10281000911D9695879597F9089523DF880B990B5D
:102820000895A1E21A2EAA1BBB1BFD010DC0AA1F11
:10283000BB1FEE1FFF1FA217B307E407F50720F029
:10284000A21BB30BE40BF50B661F771F881F991FA4
:102850001A9469F760957095809590959B01AC01ED
:10286000BD01CF010895EE0FFF1F0590F491E02DFB
:1028700019940790F691E02D1994FB01DC018D91DC
:10288000019080190110D9F3990B0895F999FECFA1
:1028900092BD81BDF89A992780B50895262FF999A0
:1028A000FECF1FBA92BD81BD20BD0FB6F894FA9A33
:0C28B000F99A0FBE01960895F894FFCF2E
:1028BC002435002434002433002432002431002B2E
:1028CC00434D54000100010001000A0A0A0A0A0AD9
:1028DC000A0A0A0A0A0A0A0A0A0A556E6974732055
:1028EC003D200020434F4E4649475552494E472EF6
:1028FC002E2E2000415445300041542B434D474669
:10290C003D310041542B434E4D493D322C322C303D
:10291C002C302C300020202042494C4C2044415477
:10292C004520202000554E495453203D2000414D58
:10293C0054203A2052732E200041542B434D4753C0
:10294C003D2238313239313237323937220D0020BD
:10295C00204D45544552205245534554202000509B
:10296C004F574552204641494C555245004D455410
:10297C004552204F50454E45440020204D4554456E
:10298C0052204F50454E4544202000444953434F5C
:10299C004E4E4543544544005245434F4E4E4543DD
:1029AC0054454400504F574552204F464600504F17
:1029BC00574552204F4E00000000008806D60F00ED
:1029CC0000000030070407D906E106F406030700EF
:1029DC00000000670ED60FBC0DD50DC70D460E0DB1
:1029EC000A006E616E00696E66006F7666002E00DE
:00000001FF
